{
  "_format": "hh-sol-artifact-1",
  "contractName": "ReputationSBT",
  "sourceName": "sol/ReputationSBT.sol",
  "abi": [
    {
      "inputs": [],
      "stateMutability": "nonpayable",
      "type": "constructor"
    },
    {
      "inputs": [],
      "name": "AccessControlBadConfirmation",
      "type": "error"
    },
    {
      "inputs": [
        {
          "internalType": "address",
          "name": "account",
          "type": "address"
        },
        {
          "internalType": "bytes32",
          "name": "neededRole",
          "type": "bytes32"
        }
      ],
      "name": "AccessControlUnauthorizedAccount",
      "type": "error"
    },
    {
      "inputs": [
        {
          "internalType": "address",
          "name": "sender",
          "type": "address"
        },
        {
          "internalType": "uint256",
          "name": "tokenId",
          "type": "uint256"
        },
        {
          "internalType": "address",
          "name": "owner",
          "type": "address"
        }
      ],
      "name": "ERC721IncorrectOwner",
      "type": "error"
    },
    {
      "inputs": [
        {
          "internalType": "address",
          "name": "operator",
          "type": "address"
        },
        {
          "internalType": "uint256",
          "name": "tokenId",
          "type": "uint256"
        }
      ],
      "name": "ERC721InsufficientApproval",
      "type": "error"
    },
    {
      "inputs": [
        {
          "internalType": "address",
          "name": "approver",
          "type": "address"
        }
      ],
      "name": "ERC721InvalidApprover",
      "type": "error"
    },
    {
      "inputs": [
        {
          "internalType": "address",
          "name": "operator",
          "type": "address"
        }
      ],
      "name": "ERC721InvalidOperator",
      "type": "error"
    },
    {
      "inputs": [
        {
          "internalType": "address",
          "name": "owner",
          "type": "address"
        }
      ],
      "name": "ERC721InvalidOwner",
      "type": "error"
    },
    {
      "inputs": [
        {
          "internalType": "address",
          "name": "receiver",
          "type": "address"
        }
      ],
      "name": "ERC721InvalidReceiver",
      "type": "error"
    },
    {
      "inputs": [
        {
          "internalType": "address",
          "name": "sender",
          "type": "address"
        }
      ],
      "name": "ERC721InvalidSender",
      "type": "error"
    },
    {
      "inputs": [
        {
          "internalType": "uint256",
          "name": "tokenId",
          "type": "uint256"
        }
      ],
      "name": "ERC721NonexistentToken",
      "type": "error"
    },
    {
      "anonymous": false,
      "inputs": [
        {
          "indexed": true,
          "internalType": "address",
          "name": "owner",
          "type": "address"
        },
        {
          "indexed": true,
          "internalType": "address",
          "name": "approved",
          "type": "address"
        },
        {
          "indexed": true,
          "internalType": "uint256",
          "name": "tokenId",
          "type": "uint256"
        }
      ],
      "name": "Approval",
      "type": "event"
    },
    {
      "anonymous": false,
      "inputs": [
        {
          "indexed": true,
          "internalType": "address",
          "name": "owner",
          "type": "address"
        },
        {
          "indexed": true,
          "internalType": "address",
          "name": "operator",
          "type": "address"
        },
        {
          "indexed": false,
          "internalType": "bool",
          "name": "approved",
          "type": "bool"
        }
      ],
      "name": "ApprovalForAll",
      "type": "event"
    },
    {
      "anonymous": false,
      "inputs": [
        {
          "indexed": true,
          "internalType": "address",
          "name": "merchant",
          "type": "address"
        },
        {
          "indexed": false,
          "internalType": "enum ReputationSBT.BadgeType",
          "name": "badge",
          "type": "uint8"
        }
      ],
      "name": "BadgeEarned",
      "type": "event"
    },
    {
      "anonymous": false,
      "inputs": [
        {
          "indexed": true,
          "internalType": "address",
          "name": "merchant",
          "type": "address"
        },
        {
          "indexed": false,
          "internalType": "uint256",
          "name": "newDisputeCount",
          "type": "uint256"
        }
      ],
      "name": "DisputeRecorded",
      "type": "event"
    },
    {
      "anonymous": false,
      "inputs": [
        {
          "indexed": true,
          "internalType": "address",
          "name": "merchant",
          "type": "address"
        },
        {
          "indexed": true,
          "internalType": "uint256",
          "name": "tokenId",
          "type": "uint256"
        }
      ],
      "name": "ReputationMinted",
      "type": "event"
    },
    {
      "anonymous": false,
      "inputs": [
        {
          "indexed": true,
          "internalType": "address",
          "name": "merchant",
          "type": "address"
        },
        {
          "indexed": false,
          "internalType": "uint256",
          "name": "newScore",
          "type": "uint256"
        }
      ],
      "name": "ReputationUpdated",
      "type": "event"
    },
    {
      "anonymous": false,
      "inputs": [
        {
          "indexed": true,
          "internalType": "bytes32",
          "name": "role",
          "type": "bytes32"
        },
        {
          "indexed": true,
          "internalType": "bytes32",
          "name": "previousAdminRole",
          "type": "bytes32"
        },
        {
          "indexed": true,
          "internalType": "bytes32",
          "name": "newAdminRole",
          "type": "bytes32"
        }
      ],
      "name": "RoleAdminChanged",
      "type": "event"
    },
    {
      "anonymous": false,
      "inputs": [
        {
          "indexed": true,
          "internalType": "bytes32",
          "name": "role",
          "type": "bytes32"
        },
        {
          "indexed": true,
          "internalType": "address",
          "name": "account",
          "type": "address"
        },
        {
          "indexed": true,
          "internalType": "address",
          "name": "sender",
          "type": "address"
        }
      ],
      "name": "RoleGranted",
      "type": "event"
    },
    {
      "anonymous": false,
      "inputs": [
        {
          "indexed": true,
          "internalType": "bytes32",
          "name": "role",
          "type": "bytes32"
        },
        {
          "indexed": true,
          "internalType": "address",
          "name": "account",
          "type": "address"
        },
        {
          "indexed": true,
          "internalType": "address",
          "name": "sender",
          "type": "address"
        }
      ],
      "name": "RoleRevoked",
      "type": "event"
    },
    {
      "anonymous": false,
      "inputs": [
        {
          "indexed": true,
          "internalType": "address",
          "name": "from",
          "type": "address"
        },
        {
          "indexed": true,
          "internalType": "address",
          "name": "to",
          "type": "address"
        },
        {
          "indexed": true,
          "internalType": "uint256",
          "name": "tokenId",
          "type": "uint256"
        }
      ],
      "name": "Transfer",
      "type": "event"
    },
    {
      "anonymous": false,
      "inputs": [
        {
          "indexed": true,
          "internalType": "address",
          "name": "merchant",
          "type": "address"
        }
      ],
      "name": "ZKVerificationCompleted",
      "type": "event"
    },
    {
      "inputs": [],
      "name": "DEFAULT_ADMIN_ROLE",
      "outputs": [
        {
          "internalType": "bytes32",
          "name": "",
          "type": "bytes32"
        }
      ],
      "stateMutability": "view",
      "type": "function"
    },
    {
      "inputs": [],
      "name": "DISPUTE_RESOLVER_ROLE",
      "outputs": [
        {
          "internalType": "bytes32",
          "name": "",
          "type": "bytes32"
        }
      ],
      "stateMutability": "view",
      "type": "function"
    },
    {
      "inputs": [],
      "name": "UPDATER_ROLE",
      "outputs": [
        {
          "internalType": "bytes32",
          "name": "",
          "type": "bytes32"
        }
      ],
      "stateMutability": "view",
      "type": "function"
    },
    {
      "inputs": [],
      "name": "ZK_VERIFIER_ROLE",
      "outputs": [
        {
          "internalType": "bytes32",
          "name": "",
          "type": "bytes32"
        }
      ],
      "stateMutability": "view",
      "type": "function"
    },
    {
      "inputs": [
        {
          "internalType": "address",
          "name": "to",
          "type": "address"
        },
        {
          "internalType": "uint256",
          "name": "tokenId",
          "type": "uint256"
        }
      ],
      "name": "approve",
      "outputs": [],
      "stateMutability": "nonpayable",
      "type": "function"
    },
    {
      "inputs": [
        {
          "internalType": "address",
          "name": "merchant",
          "type": "address"
        },
        {
          "internalType": "enum ReputationSBT.BadgeType",
          "name": "badge",
          "type": "uint8"
        }
      ],
      "name": "awardBadge",
      "outputs": [],
      "stateMutability": "nonpayable",
      "type": "function"
    },
    {
      "inputs": [
        {
          "internalType": "address",
          "name": "owner",
          "type": "address"
        }
      ],
      "name": "balanceOf",
      "outputs": [
        {
          "internalType": "uint256",
          "name": "",
          "type": "uint256"
        }
      ],
      "stateMutability": "view",
      "type": "function"
    },
    {
      "inputs": [
        {
          "internalType": "address",
          "name": "walletAddress",
          "type": "address"
        }
      ],
      "name": "calculateScore",
      "outputs": [
        {
          "internalType": "uint256",
          "name": "",
          "type": "uint256"
        }
      ],
      "stateMutability": "view",
      "type": "function"
    },
    {
      "inputs": [
        {
          "internalType": "address",
          "name": "walletAddress",
          "type": "address"
        },
        {
          "internalType": "enum ReputationSBT.BadgeType",
          "name": "badge",
          "type": "uint8"
        }
      ],
      "name": "checkBadge",
      "outputs": [
        {
          "internalType": "bool",
          "name": "",
          "type": "bool"
        }
      ],
      "stateMutability": "view",
      "type": "function"
    },
    {
      "inputs": [
        {
          "internalType": "uint256",
          "name": "tokenId",
          "type": "uint256"
        }
      ],
      "name": "getApproved",
      "outputs": [
        {
          "internalType": "address",
          "name": "",
          "type": "address"
        }
      ],
      "stateMutability": "view",
      "type": "function"
    },
    {
      "inputs": [
        {
          "internalType": "address",
          "name": "walletAddress",
          "type": "address"
        }
      ],
      "name": "getBadges",
      "outputs": [
        {
          "internalType": "enum ReputationSBT.BadgeType[]",
          "name": "",
          "type": "uint8[]"
        }
      ],
      "stateMutability": "view",
      "type": "function"
    },
    {
      "inputs": [
        {
          "internalType": "address",
          "name": "walletAddress",
          "type": "address"
        }
      ],
      "name": "getReputation",
      "outputs": [
        {
          "internalType": "uint256",
          "name": "score",
          "type": "uint256"
        },
        {
          "internalType": "uint256",
          "name": "totalTransactions",
          "type": "uint256"
        },
        {
          "internalType": "uint256",
          "name": "successfulTransactions",
          "type": "uint256"
        },
        {
          "internalType": "uint256",
          "name": "volumeUsd",
          "type": "uint256"
        },
        {
          "internalType": "uint256",
          "name": "disputeCount",
          "type": "uint256"
        },
        {
          "internalType": "uint256",
          "name": "settlementScore",
          "type": "uint256"
        },
        {
          "internalType": "bool",
          "name": "zkVerified",
          "type": "bool"
        },
        {
          "internalType": "uint256",
          "name": "badgeCount",
          "type": "uint256"
        }
      ],
      "stateMutability": "view",
      "type": "function"
    },
    {
      "inputs": [
        {
          "internalType": "bytes32",
          "name": "role",
          "type": "bytes32"
        }
      ],
      "name": "getRoleAdmin",
      "outputs": [
        {
          "internalType": "bytes32",
          "name": "",
          "type": "bytes32"
        }
      ],
      "stateMutability": "view",
      "type": "function"
    },
    {
      "inputs": [
        {
          "internalType": "bytes32",
          "name": "role",
          "type": "bytes32"
        },
        {
          "internalType": "address",
          "name": "account",
          "type": "address"
        }
      ],
      "name": "grantRole",
      "outputs": [],
      "stateMutability": "nonpayable",
      "type": "function"
    },
    {
      "inputs": [
        {
          "internalType": "address",
          "name": "",
          "type": "address"
        },
        {
          "internalType": "enum ReputationSBT.BadgeType",
          "name": "",
          "type": "uint8"
        }
      ],
      "name": "hasBadge",
      "outputs": [
        {
          "internalType": "bool",
          "name": "",
          "type": "bool"
        }
      ],
      "stateMutability": "view",
      "type": "function"
    },
    {
      "inputs": [
        {
          "internalType": "bytes32",
          "name": "role",
          "type": "bytes32"
        },
        {
          "internalType": "address",
          "name": "account",
          "type": "address"
        }
      ],
      "name": "hasRole",
      "outputs": [
        {
          "internalType": "bool",
          "name": "",
          "type": "bool"
        }
      ],
      "stateMutability": "view",
      "type": "function"
    },
    {
      "inputs": [
        {
          "internalType": "address",
          "name": "owner",
          "type": "address"
        },
        {
          "internalType": "address",
          "name": "operator",
          "type": "address"
        }
      ],
      "name": "isApprovedForAll",
      "outputs": [
        {
          "internalType": "bool",
          "name": "",
          "type": "bool"
        }
      ],
      "stateMutability": "view",
      "type": "function"
    },
    {
      "inputs": [
        {
          "internalType": "address",
          "name": "to",
          "type": "address"
        }
      ],
      "name": "mintReputation",
      "outputs": [
        {
          "internalType": "uint256",
          "name": "",
          "type": "uint256"
        }
      ],
      "stateMutability": "nonpayable",
      "type": "function"
    },
    {
      "inputs": [],
      "name": "name",
      "outputs": [
        {
          "internalType": "string",
          "name": "",
          "type": "string"
        }
      ],
      "stateMutability": "view",
      "type": "function"
    },
    {
      "inputs": [
        {
          "internalType": "uint256",
          "name": "tokenId",
          "type": "uint256"
        }
      ],
      "name": "ownerOf",
      "outputs": [
        {
          "internalType": "address",
          "name": "",
          "type": "address"
        }
      ],
      "stateMutability": "view",
      "type": "function"
    },
    {
      "inputs": [
        {
          "internalType": "address",
          "name": "merchant",
          "type": "address"
        }
      ],
      "name": "recordDispute",
      "outputs": [],
      "stateMutability": "nonpayable",
      "type": "function"
    },
    {
      "inputs": [
        {
          "internalType": "address",
          "name": "merchant",
          "type": "address"
        },
        {
          "internalType": "uint256",
          "name": "volumeCentsUsd",
          "type": "uint256"
        },
        {
          "internalType": "bool",
          "name": "successful",
          "type": "bool"
        },
        {
          "internalType": "bool",
          "name": "sameDaySettlement",
          "type": "bool"
        }
      ],
      "name": "recordTransaction",
      "outputs": [],
      "stateMutability": "nonpayable",
      "type": "function"
    },
    {
      "inputs": [
        {
          "internalType": "bytes32",
          "name": "role",
          "type": "bytes32"
        },
        {
          "internalType": "address",
          "name": "callerConfirmation",
          "type": "address"
        }
      ],
      "name": "renounceRole",
      "outputs": [],
      "stateMutability": "nonpayable",
      "type": "function"
    },
    {
      "inputs": [
        {
          "internalType": "uint256",
          "name": "",
          "type": "uint256"
        }
      ],
      "name": "reputations",
      "outputs": [
        {
          "internalType": "uint256",
          "name": "totalTransactions",
          "type": "uint256"
        },
        {
          "internalType": "uint256",
          "name": "successfulTransactions",
          "type": "uint256"
        },
        {
          "internalType": "uint256",
          "name": "volumeUsd",
          "type": "uint256"
        },
        {
          "internalType": "uint256",
          "name": "firstTxTimestamp",
          "type": "uint256"
        },
        {
          "internalType": "uint256",
          "name": "disputeCount",
          "type": "uint256"
        },
        {
          "internalType": "uint256",
          "name": "settlementScore",
          "type": "uint256"
        },
        {
          "internalType": "bool",
          "name": "zkVerified",
          "type": "bool"
        },
        {
          "internalType": "uint256",
          "name": "lastUpdated",
          "type": "uint256"
        }
      ],
      "stateMutability": "view",
      "type": "function"
    },
    {
      "inputs": [
        {
          "internalType": "bytes32",
          "name": "role",
          "type": "bytes32"
        },
        {
          "internalType": "address",
          "name": "account",
          "type": "address"
        }
      ],
      "name": "revokeRole",
      "outputs": [],
      "stateMutability": "nonpayable",
      "type": "function"
    },
    {
      "inputs": [
        {
          "internalType": "address",
          "name": "from",
          "type": "address"
        },
        {
          "internalType": "address",
          "name": "to",
          "type": "address"
        },
        {
          "internalType": "uint256",
          "name": "tokenId",
          "type": "uint256"
        }
      ],
      "name": "safeTransferFrom",
      "outputs": [],
      "stateMutability": "nonpayable",
      "type": "function"
    },
    {
      "inputs": [
        {
          "internalType": "address",
          "name": "from",
          "type": "address"
        },
        {
          "internalType": "address",
          "name": "to",
          "type": "address"
        },
        {
          "internalType": "uint256",
          "name": "tokenId",
          "type": "uint256"
        },
        {
          "internalType": "bytes",
          "name": "data",
          "type": "bytes"
        }
      ],
      "name": "safeTransferFrom",
      "outputs": [],
      "stateMutability": "nonpayable",
      "type": "function"
    },
    {
      "inputs": [
        {
          "internalType": "address",
          "name": "operator",
          "type": "address"
        },
        {
          "internalType": "bool",
          "name": "approved",
          "type": "bool"
        }
      ],
      "name": "setApprovalForAll",
      "outputs": [],
      "stateMutability": "nonpayable",
      "type": "function"
    },
    {
      "inputs": [
        {
          "internalType": "string",
          "name": "baseURI",
          "type": "string"
        }
      ],
      "name": "setBaseURI",
      "outputs": [],
      "stateMutability": "nonpayable",
      "type": "function"
    },
    {
      "inputs": [
        {
          "internalType": "address",
          "name": "merchant",
          "type": "address"
        }
      ],
      "name": "setZKVerified",
      "outputs": [],
      "stateMutability": "nonpayable",
      "type": "function"
    },
    {
      "inputs": [
        {
          "internalType": "bytes4",
          "name": "interfaceId",
          "type": "bytes4"
        }
      ],
      "name": "supportsInterface",
      "outputs": [
        {
          "internalType": "bool",
          "name": "",
          "type": "bool"
        }
      ],
      "stateMutability": "view",
      "type": "function"
    },
    {
      "inputs": [],
      "name": "symbol",
      "outputs": [
        {
          "internalType": "string",
          "name": "",
          "type": "string"
        }
      ],
      "stateMutability": "view",
      "type": "function"
    },
    {
      "inputs": [
        {
          "internalType": "uint256",
          "name": "tokenId",
          "type": "uint256"
        }
      ],
      "name": "tokenURI",
      "outputs": [
        {
          "internalType": "string",
          "name": "",
          "type": "string"
        }
      ],
      "stateMutability": "view",
      "type": "function"
    },
    {
      "inputs": [
        {
          "internalType": "address",
          "name": "from",
          "type": "address"
        },
        {
          "internalType": "address",
          "name": "to",
          "type": "address"
        },
        {
          "internalType": "uint256",
          "name": "tokenId",
          "type": "uint256"
        }
      ],
      "name": "transferFrom",
      "outputs": [],
      "stateMutability": "nonpayable",
      "type": "function"
    },
    {
      "inputs": [
        {
          "internalType": "address",
          "name": "",
          "type": "address"
        }
      ],
      "name": "walletToToken",
      "outputs": [
        {
          "internalType": "uint256",
          "name": "",
          "type": "uint256"
        }
      ],
      "stateMutability": "view",
      "type": "function"
    }
  ],
  "bytecode": "0x60806040523480156200001157600080fd5b506040518060400160405280601d81526020017f436f696e4461696c792045636f2d5a6f6e652052657075746174696f6e00000081525060405180604001604052806005815260200164043445245560dc1b81525081600090816200007791906200027e565b5060016200008682826200027e565b50620000989150600090503362000126565b50620000c57f73e573f9566d61418a34d5de3ff49360f9c51fec37f7486551670290f6285dab3362000126565b50620000f27f7b8bb8356a3f32f5c111ff23f050d97f08988e0883529ea7bff3b918887a6e0e3362000126565b506200011f7fa5542217d0e2684924380f4916e47c59ef048b714a78baf895d6e78dad2869ce3362000126565b506200034a565b60008281526006602090815260408083206001600160a01b038516845290915281205460ff16620001cf5760008381526006602090815260408083206001600160a01b03861684529091529020805460ff19166001179055620001863390565b6001600160a01b0316826001600160a01b0316847f2f8788117e7eff1d82e926ec794901d17c78024a50270940304540a733656f0d60405160405180910390a4506001620001d3565b5060005b92915050565b634e487b7160e01b600052604160045260246000fd5b600181811c908216806200020457607f821691505b6020821081036200022557634e487b7160e01b600052602260045260246000fd5b50919050565b601f8211156200027957600081815260208120601f850160051c81016020861015620002545750805b601f850160051c820191505b81811015620002755782815560010162000260565b5050505b505050565b81516001600160401b038111156200029a576200029a620001d9565b620002b281620002ab8454620001ef565b846200022b565b602080601f831160018114620002ea5760008415620002d15750858301515b600019600386901b1c1916600185901b17855562000275565b600085815260208120601f198616915b828110156200031b57888601518255948401946001909101908401620002fa565b50858210156200033a5787850151600019600388901b60f8161c191681555b5050505050600190811b01905550565b6127b8806200035a6000396000f3fe608060405234801561001057600080fd5b50600436106102115760003560e01c806355f804b311610125578063a217fddf116100ad578063bfe42a371161007c578063bfe42a3714610555578063c87b56dd1461057c578063d547741f1461058f578063e87cadce146105a2578063e985e9c5146105b557600080fd5b8063a217fddf14610514578063a22cb4651461051c578063b88d4fde1461052f578063ba8bfc681461054257600080fd5b80637806497b116100f45780637806497b146104c0578063798c6b6c146104d357806391d14854146104e657806395d89b41146104f95780639c89a0e21461050157600080fd5b806355f804b3146103f35780636352211e1461040657806370a082311461041957806372fa9b851461042c57600080fd5b806323b872dd116101a857806336568abe1161017757806336568abe146103775780633af0c6881461038a57806342842e0e146103b857806347e63380146103cb57806348e62e63146103e057600080fd5b806323b872dd1461031b57806323e957b61461032e578063248a9ca3146103415780632f2ff15d1461036457600080fd5b8063081812fc116101e4578063081812fc146102a1578063095ea7b3146102cc5780631133dcc8146102e1578063125637521461030857600080fd5b806301ffc9a71461021657806303828e451461023e57806303a1b24e1461025e57806306fdde031461028c575b600080fd5b610229610224366004612084565b6105c8565b60405190151581526020015b60405180910390f35b61025161024c3660046120bd565b6105d9565b6040516102359190612110565b61027e61026c3660046120bd565b60086020526000908152604090205481565b604051908152602001610235565b6102946106a6565b60405161023591906121ab565b6102b46102af3660046121be565b610738565b6040516001600160a01b039091168152602001610235565b6102df6102da3660046121d7565b610761565b005b61027e7fa5542217d0e2684924380f4916e47c59ef048b714a78baf895d6e78dad2869ce81565b61027e6103163660046120bd565b610770565b6102df610329366004612201565b61098d565b61027e61033c3660046120bd565b610a18565b61027e61034f3660046121be565b60009081526006602052604090206001015490565b6102df61037236600461223d565b610b90565b6102df61038536600461223d565b610bb5565b610229610398366004612269565b600a60209081526000928352604080842090915290825290205460ff1681565b6102df6103c6366004612201565b610bed565b61027e60008051602061276383398151915281565b6102df6103ee3660046120bd565b610c08565b6102df610401366004612330565b610d0a565b6102b46104143660046121be565b610d21565b61027e6104273660046120bd565b610d2c565b61048361043a3660046121be565b6009602052600090815260409020805460018201546002830154600384015460048501546005860154600687015460079097015495969495939492939192909160ff9091169088565b604080519889526020890197909752958701949094526060860192909252608085015260a0840152151560c083015260e082015261010001610235565b6102296104ce366004612269565b610d74565b6102df6104e1366004612269565b610dcb565b6102296104f436600461223d565b611002565b61029461102d565b61048361050f3660046120bd565b61103c565b61027e600081565b6102df61052a366004612389565b6110e9565b6102df61053d3660046123b3565b6110f4565b6102df6105503660046120bd565b61110b565b61027e7f7b8bb8356a3f32f5c111ff23f050d97f08988e0883529ea7bff3b918887a6e0e81565b61029461058a3660046121be565b6111e5565b6102df61059d36600461223d565b61124d565b6102df6105b036600461242f565b611272565b6102296105c336600461247c565b6113cb565b60006105d3826113f9565b92915050565b6001600160a01b038116600090815260086020526040812054606091819003610612575050604080516000815260208101909152919050565b6000818152600960209081526040918290206008018054835181840281018401909452808452909183018282801561069957602002820191906000526020600020906000905b82829054906101000a900460ff166005811115610677576106776120d8565b8152602060019283018181049485019490930390920291018084116106585790505b5050505050915050919050565b6060600080546106b5906124a6565b80601f01602080910402602001604051908101604052809291908181526020018280546106e1906124a6565b801561072e5780601f106107035761010080835404028352916020019161072e565b820191906000526020600020905b81548152906001019060200180831161071157829003601f168201915b5050505050905090565b60006107438261141e565b506000828152600460205260409020546001600160a01b03166105d3565b61076c828233611457565b5050565b600060008051602061276383398151915261078a81611464565b6001600160a01b038316600090815260086020526040902054156108015760405162461bcd60e51b815260206004820152602360248201527f57616c6c657420616c7265616479206861732072657075746174696f6e20746f60448201526235b2b760e91b60648201526084015b60405180910390fd5b6001600160a01b0383166108575760405162461bcd60e51b815260206004820152601b60248201527f43616e6e6f74206d696e7420746f207a65726f2061646472657373000000000060448201526064016107f8565b60078054906000610867836124f0565b90915550506007546108798482611471565b6001600160a01b0384166000908152600860208181526040808420859055805161012081018252848152808301858152818301868152426060840181815260808501898152606460a0870190815260c087018b815260e0880194855288518c8152808b018a5261010089019081528d8d5260098b5298909b208751815595516001870155935160028601559051600385015551600484015590516005830155955160068201805460ff1916911515919091179055945160078601559051805191949361094b9390850192910190611fa5565b50506040518291506001600160a01b038616907f42bcf4689d0211adce4e556ee455319d34e671e8b8a762034e146461fb1be82d90600090a391505b50919050565b6001600160a01b0382166109b757604051633250574960e11b8152600060048201526024016107f8565b60006109c483833361148b565b9050836001600160a01b0316816001600160a01b031614610a12576040516364283d7b60e01b81526001600160a01b03808616600483015260248201849052821660448201526064016107f8565b50505050565b6001600160a01b038116600090815260086020526040812054808203610a415750600092915050565b60008181526009602052604081208054909190610a5f576001610a62565b81545b9050600081836001015461012c610a799190612509565b610a839190612520565b905060006107d08460020154610a999190612520565b90506101f4811115610aaa57506101f45b6000846003015442610abc9190612542565b90506000610acd6201518083612520565b90506000610adc601e83612520565b90506064811115610aeb575060645b600087600401546032610afe9190612509565b600689015490915060009060ff16610b17576000610b1a565b60645b60ff16905060008184610b2d898b612555565b610b379190612555565b610b419190612555565b9050808310610b5d575060009c9b505050505050505050505050565b6000610b698483612542565b90506103e88111610b7a5780610b7e565b6103e85b9e9d5050505050505050505050505050565b600082815260066020526040902060010154610bab81611464565b610a128383611517565b6001600160a01b0381163314610bde5760405163334bd91960e11b815260040160405180910390fd5b610be882826115ab565b505050565b610be8838383604051806020016040528060008152506110f4565b7fa5542217d0e2684924380f4916e47c59ef048b714a78baf895d6e78dad2869ce610c3281611464565b6001600160a01b03821660009081526008602052604081205490819003610c6b5760405162461bcd60e51b81526004016107f890612568565b60008181526009602052604080822060068101805460ff1916600117905542600790910155516001600160a01b038516917f2ca21df572048a28052338db4d498cfe8c2401fec7146c32a4ab8b2e0788941691a2826001600160a01b03167ffc577563f1b9a0461e24abef1e1fcc0d33d3d881f20b5df6dda59de4aae2c821610cf385610a18565b6040519081526020015b60405180910390a2505050565b6000610d1581611464565b600b610be883826125eb565b60006105d38261141e565b60006001600160a01b038216610d58576040516322718ad960e21b8152600060048201526024016107f8565b506001600160a01b031660009081526003602052604090205490565b6001600160a01b0382166000908152600a6020526040812081836005811115610d9f57610d9f6120d8565b6005811115610db057610db06120d8565b815260208101919091526040016000205460ff169392505050565b600080516020612763833981519152610de381611464565b6000826005811115610df757610df76120d8565b03610e395760405162461bcd60e51b8152602060048201526012602482015271496e76616c6964206261646765207479706560701b60448201526064016107f8565b6001600160a01b0383166000908152600a6020526040812090836005811115610e6457610e646120d8565b6005811115610e7557610e756120d8565b815260208101919091526040016000205460ff1615610ece5760405162461bcd60e51b815260206004820152601560248201527410985919d948185b1c9958591e48185dd85c991959605a1b60448201526064016107f8565b6001600160a01b03831660009081526008602052604081205490819003610f075760405162461bcd60e51b81526004016107f890612568565b6001600160a01b0384166000908152600a60205260408120600191856005811115610f3457610f346120d8565b6005811115610f4557610f456120d8565b815260208082019290925260409081016000908120805494151560ff19909516949094179093558383526009825282206008018054600181018255908352918190209082040180548592601f166101000a60ff81021990911690836005811115610fb157610fb16120d8565b02179055506000818152600960205260409081902042600790910155516001600160a01b0385169060008051602061274383398151915290610ff49086906126ab565b60405180910390a250505050565b60009182526006602090815260408084206001600160a01b0393909316845291905290205460ff1690565b6060600180546106b5906124a6565b6001600160a01b038116600090815260086020526040812054819081908190819081908190819080820361108c5760008060008060008060008098509850985098509850985098509850506110de565b60008181526009602052604090206110a38b610a18565b815460018301546002840154600485015460058601546006870154600890970154959f50939d50919b5099509750955060ff90911693509150505b919395975091939597565b61076c338383611618565b6110ff84848461098d565b610a12848484846116b7565b7f7b8bb8356a3f32f5c111ff23f050d97f08988e0883529ea7bff3b918887a6e0e61113581611464565b6001600160a01b0382166000908152600860205260408120549081900361116e5760405162461bcd60e51b81526004016107f890612568565b600081815260096020526040812060040180549161118b836124f0565b9091555050600081815260096020526040908190204260078201556004015490516001600160a01b038516917f722643f27b1b75bd72e3267ecf150fb76b03d3b805e45641e5dc4f356201ccc791610cfd91815260200190565b60606111f08261141e565b5060006111fb6117e0565b9050600081511161121b5760405180602001604052806000815250611246565b80611225846117ef565b6040516020016112369291906126b9565b6040516020818303038152906040525b9392505050565b60008281526006602052604090206001015461126881611464565b610a1283836115ab565b60008051602061276383398151915261128a81611464565b6001600160a01b038516600090815260086020526040812054908190036112c35760405162461bcd60e51b81526004016107f890612568565b60008181526009602052604081208054909182906112e0836124f0565b91905055508415611303576001810180549060006112fd836124f0565b91905055505b858160020160008282546113179190612555565b90915550600090508461132b57600061132e565b60645b825460ff91909116915081611344600183612542565b84600501546113539190612509565b61135d9190612555565b6113679190612520565b600583015542600783015561137c8884611882565b876001600160a01b03167ffc577563f1b9a0461e24abef1e1fcc0d33d3d881f20b5df6dda59de4aae2c8216113b08a610a18565b60405190815260200160405180910390a25050505050505050565b6001600160a01b03918216600090815260056020908152604080832093909416825291909152205460ff1690565b60006001600160e01b03198216637965db0b60e01b14806105d357506105d382611aff565b6000818152600260205260408120546001600160a01b0316806105d357604051637e27328960e01b8152600481018490526024016107f8565b610be88383836001611b4f565b61146e8133611c55565b50565b61076c828260405180602001604052806000815250611c8e565b6000828152600260205260408120546001600160a01b03168015806114b757506001600160a01b038516155b6115035760405162461bcd60e51b815260206004820152601b60248201527f536f756c626f756e643a206e6f6e2d7472616e7366657261626c65000000000060448201526064016107f8565b61150e858585611ca5565b95945050505050565b60006115238383611002565b6115a35760008381526006602090815260408083206001600160a01b03861684529091529020805460ff1916600117905561155b3390565b6001600160a01b0316826001600160a01b0316847f2f8788117e7eff1d82e926ec794901d17c78024a50270940304540a733656f0d60405160405180910390a45060016105d3565b5060006105d3565b60006115b78383611002565b156115a35760008381526006602090815260408083206001600160a01b0386168085529252808320805460ff1916905551339286917ff6391f5c32d9c69d2a47ea670b442974b53935d1edc7fd64eb21e047a839171b9190a45060016105d3565b6001600160a01b03821661164a57604051630b61174360e31b81526001600160a01b03831660048201526024016107f8565b6001600160a01b03838116600081815260056020908152604080832094871680845294825291829020805460ff191686151590811790915591519182527f17307eab39ab6107e8899845ad3d59bd9653f200f220920489ca2b5937696c31910160405180910390a3505050565b6001600160a01b0383163b15610a1257604051630a85bd0160e11b81526001600160a01b0384169063150b7a02906116f99033908890879087906004016126e8565b6020604051808303816000875af1925050508015611734575060408051601f3d908101601f1916820190925261173191810190612725565b60015b61179d573d808015611762576040519150601f19603f3d011682016040523d82523d6000602084013e611767565b606091505b50805160000361179557604051633250574960e11b81526001600160a01b03851660048201526024016107f8565b805181602001fd5b6001600160e01b03198116630a85bd0160e11b146117d957604051633250574960e11b81526001600160a01b03851660048201526024016107f8565b5050505050565b6060600b80546106b5906124a6565b606060006117fc83611d9e565b600101905060008167ffffffffffffffff81111561181c5761181c6122a4565b6040519080825280601f01601f191660200182016040528015611846576020820181803683370190505b5090508181016020015b600019016f181899199a1a9b1b9c1cb0b131b232b360811b600a86061a8153600a850494508461185057509392505050565b60008181526009602090815260408083206001600160a01b0386168452600a8352818420600485529092529091205460ff161580156118c85750620f4240816002015410155b15611959576001600160a01b0383166000818152600a6020908152604080832060048085529083528184208054600160ff1990911681179091556008870180549182018155855293839020928404909201805460ff601f9095166101000a948502191693830293909317909255905160008051602061274383398151915291611950916126ab565b60405180910390a25b6001600160a01b0383166000908152600a602090815260408083206003845290915290205460ff161580156119935750605f816005015410155b80156119a157508054601411155b15611a32576001600160a01b0383166000818152600a6020908152604080832060038085529083528184208054600160ff1990911681179091556008870180549182018155855293839020928404909201805460ff601f9095166101000a948502191693830293909317909255905160008051602061274383398151915291611a29916126ab565b60405180910390a25b6001600160a01b0383166000908152600a602090815260408083206005845290915290205460ff16158015611a6957508054603211155b8015611a7757506004810154155b15610be8576001600160a01b0383166000818152600a6020908152604080832060058085529083528184208054600160ff1990911681179091556008870180549182018155855293839020928404909201805460ff601f9095166101000a948502191693830293909317909255905160008051602061274383398151915291610cfd916126ab565b60006001600160e01b031982166380ac58cd60e01b1480611b3057506001600160e01b03198216635b5e139f60e01b145b806105d357506301ffc9a760e01b6001600160e01b03198316146105d3565b8080611b6357506001600160a01b03821615155b15611c25576000611b738461141e565b90506001600160a01b03831615801590611b9f5750826001600160a01b0316816001600160a01b031614155b8015611bb25750611bb081846113cb565b155b15611bdb5760405163a9fbf51f60e01b81526001600160a01b03841660048201526024016107f8565b8115611c235783856001600160a01b0316826001600160a01b03167f8c5be1e5ebec7d5bd14f71427d1e84f3dd0314c0f7b2291e5b200ac8c7c3b92560405160405180910390a45b505b5050600090815260046020526040902080546001600160a01b0319166001600160a01b0392909216919091179055565b611c5f8282611002565b61076c5760405163e2517d3f60e01b81526001600160a01b0382166004820152602481018390526044016107f8565b611c988383611e76565b610be860008484846116b7565b6000828152600260205260408120546001600160a01b0390811690831615611cd257611cd2818486611edb565b6001600160a01b03811615611d1057611cef600085600080611b4f565b6001600160a01b038116600090815260036020526040902080546000190190555b6001600160a01b03851615611d3f576001600160a01b0385166000908152600360205260409020805460010190555b60008481526002602052604080822080546001600160a01b0319166001600160a01b0389811691821790925591518793918516917fddf252ad1be2c89b69c2b068fc378daa952ba7f163c4a11628f55a4df523b3ef91a4949350505050565b60008072184f03e93ff9f4daa797ed6e38ed64bf6a1f0160401b8310611ddd5772184f03e93ff9f4daa797ed6e38ed64bf6a1f0160401b830492506040015b6d04ee2d6d415b85acef81000000008310611e09576d04ee2d6d415b85acef8100000000830492506020015b662386f26fc100008310611e2757662386f26fc10000830492506010015b6305f5e1008310611e3f576305f5e100830492506008015b6127108310611e5357612710830492506004015b60648310611e65576064830492506002015b600a83106105d35760010192915050565b6001600160a01b038216611ea057604051633250574960e11b8152600060048201526024016107f8565b6000611eae8383600061148b565b90506001600160a01b03811615610be8576040516339e3563760e11b8152600060048201526024016107f8565b611ee6838383611f3f565b610be8576001600160a01b038316611f1457604051637e27328960e01b8152600481018290526024016107f8565b60405163177e802f60e01b81526001600160a01b0383166004820152602481018290526044016107f8565b60006001600160a01b03831615801590611f9d5750826001600160a01b0316846001600160a01b03161480611f795750611f7984846113cb565b80611f9d57506000828152600460205260409020546001600160a01b038481169116145b949350505050565b82805482825590600052602060002090601f016020900481019282156120495791602002820160005b8382111561201a57835183826101000a81548160ff02191690836005811115611ff957611ff96120d8565b02179055509260200192600101602081600001049283019260010302611fce565b80156120475782816101000a81549060ff021916905560010160208160000104928301926001030261201a565b505b50612055929150612059565b5090565b5b80821115612055576000815560010161205a565b6001600160e01b03198116811461146e57600080fd5b60006020828403121561209657600080fd5b81356112468161206e565b80356001600160a01b03811681146120b857600080fd5b919050565b6000602082840312156120cf57600080fd5b611246826120a1565b634e487b7160e01b600052602160045260246000fd5b6006811061210c57634e487b7160e01b600052602160045260246000fd5b9052565b6020808252825182820181905260009190848201906040850190845b8181101561214f5761213f8385516120ee565b928401929184019160010161212c565b50909695505050505050565b60005b8381101561217657818101518382015260200161215e565b50506000910152565b6000815180845261219781602086016020860161215b565b601f01601f19169290920160200192915050565b602081526000611246602083018461217f565b6000602082840312156121d057600080fd5b5035919050565b600080604083850312156121ea57600080fd5b6121f3836120a1565b946020939093013593505050565b60008060006060848603121561221657600080fd5b61221f846120a1565b925061222d602085016120a1565b9150604084013590509250925092565b6000806040838503121561225057600080fd5b82359150612260602084016120a1565b90509250929050565b6000806040838503121561227c57600080fd5b612285836120a1565b915060208301356006811061229957600080fd5b809150509250929050565b634e487b7160e01b600052604160045260246000fd5b600067ffffffffffffffff808411156122d5576122d56122a4565b604051601f8501601f19908116603f011681019082821181831017156122fd576122fd6122a4565b8160405280935085815286868601111561231657600080fd5b858560208301376000602087830101525050509392505050565b60006020828403121561234257600080fd5b813567ffffffffffffffff81111561235957600080fd5b8201601f8101841361236a57600080fd5b611f9d848235602084016122ba565b803580151581146120b857600080fd5b6000806040838503121561239c57600080fd5b6123a5836120a1565b915061226060208401612379565b600080600080608085870312156123c957600080fd5b6123d2856120a1565b93506123e0602086016120a1565b925060408501359150606085013567ffffffffffffffff81111561240357600080fd5b8501601f8101871361241457600080fd5b612423878235602084016122ba565b91505092959194509250565b6000806000806080858703121561244557600080fd5b61244e856120a1565b93506020850135925061246360408601612379565b915061247160608601612379565b905092959194509250565b6000806040838503121561248f57600080fd5b612498836120a1565b9150612260602084016120a1565b600181811c908216806124ba57607f821691505b60208210810361098757634e487b7160e01b600052602260045260246000fd5b634e487b7160e01b600052601160045260246000fd5b600060018201612502576125026124da565b5060010190565b80820281158282048414176105d3576105d36124da565b60008261253d57634e487b7160e01b600052601260045260246000fd5b500490565b818103818111156105d3576105d36124da565b808201808211156105d3576105d36124da565b6020808252818101527f4d65726368616e7420686173206e6f2072657075746174696f6e20746f6b656e604082015260600190565b601f821115610be857600081815260208120601f850160051c810160208610156125c45750805b601f850160051c820191505b818110156125e3578281556001016125d0565b505050505050565b815167ffffffffffffffff811115612605576126056122a4565b6126198161261384546124a6565b8461259d565b602080601f83116001811461264e57600084156126365750858301515b600019600386901b1c1916600185901b1785556125e3565b600085815260208120601f198616915b8281101561267d5788860151825594840194600190910190840161265e565b508582101561269b5787850151600019600388901b60f8161c191681555b5050505050600190811b01905550565b602081016105d382846120ee565b600083516126cb81846020880161215b565b8351908301906126df81836020880161215b565b01949350505050565b6001600160a01b038581168252841660208201526040810183905260806060820181905260009061271b9083018461217f565b9695505050505050565b60006020828403121561273757600080fd5b81516112468161206e56fee77c5a722d2d46cdd1852f1811f567c19dadc53da7fc1e0ee6fc979d0335dbac73e573f9566d61418a34d5de3ff49360f9c51fec37f7486551670290f6285daba26469706673582212203ff0c166679e4dac05d3ba7a06e82231cb8de01569c9f97caf34aab4f28c245a64736f6c63430008140033",
  "linkReferences": {},
  "deployedLinkReferences": {}
}