{
  "_format": "hh-sol-artifact-1",
  "contractName": "TokenVesting",
  "sourceName": "sol/TokenVesting.sol",
  "abi": [
    {
      "inputs": [
        {
          "internalType": "address",
          "name": "_token",
          "type": "address"
        },
        {
          "internalType": "address",
          "name": "_beneficiary",
          "type": "address"
        },
        {
          "internalType": "uint256",
          "name": "_totalAmount",
          "type": "uint256"
        },
        {
          "internalType": "uint256",
          "name": "_start",
          "type": "uint256"
        },
        {
          "internalType": "uint256",
          "name": "_duration",
          "type": "uint256"
        }
      ],
      "stateMutability": "nonpayable",
      "type": "constructor"
    },
    {
      "inputs": [
        {
          "internalType": "address",
          "name": "target",
          "type": "address"
        }
      ],
      "name": "AddressEmptyCode",
      "type": "error"
    },
    {
      "inputs": [
        {
          "internalType": "address",
          "name": "account",
          "type": "address"
        }
      ],
      "name": "AddressInsufficientBalance",
      "type": "error"
    },
    {
      "inputs": [],
      "name": "FailedInnerCall",
      "type": "error"
    },
    {
      "inputs": [
        {
          "internalType": "address",
          "name": "owner",
          "type": "address"
        }
      ],
      "name": "OwnableInvalidOwner",
      "type": "error"
    },
    {
      "inputs": [
        {
          "internalType": "address",
          "name": "account",
          "type": "address"
        }
      ],
      "name": "OwnableUnauthorizedAccount",
      "type": "error"
    },
    {
      "inputs": [
        {
          "internalType": "address",
          "name": "token",
          "type": "address"
        }
      ],
      "name": "SafeERC20FailedOperation",
      "type": "error"
    },
    {
      "anonymous": false,
      "inputs": [
        {
          "indexed": true,
          "internalType": "address",
          "name": "previousOwner",
          "type": "address"
        },
        {
          "indexed": true,
          "internalType": "address",
          "name": "newOwner",
          "type": "address"
        }
      ],
      "name": "OwnershipTransferred",
      "type": "event"
    },
    {
      "anonymous": false,
      "inputs": [
        {
          "indexed": true,
          "internalType": "address",
          "name": "beneficiary",
          "type": "address"
        },
        {
          "indexed": false,
          "internalType": "uint256",
          "name": "amount",
          "type": "uint256"
        }
      ],
      "name": "Released",
      "type": "event"
    },
    {
      "inputs": [],
      "name": "beneficiary",
      "outputs": [
        {
          "internalType": "address",
          "name": "",
          "type": "address"
        }
      ],
      "stateMutability": "view",
      "type": "function"
    },
    {
      "inputs": [],
      "name": "duration",
      "outputs": [
        {
          "internalType": "uint256",
          "name": "",
          "type": "uint256"
        }
      ],
      "stateMutability": "view",
      "type": "function"
    },
    {
      "inputs": [],
      "name": "owner",
      "outputs": [
        {
          "internalType": "address",
          "name": "",
          "type": "address"
        }
      ],
      "stateMutability": "view",
      "type": "function"
    },
    {
      "inputs": [],
      "name": "releasable",
      "outputs": [
        {
          "internalType": "uint256",
          "name": "",
          "type": "uint256"
        }
      ],
      "stateMutability": "view",
      "type": "function"
    },
    {
      "inputs": [],
      "name": "release",
      "outputs": [],
      "stateMutability": "nonpayable",
      "type": "function"
    },
    {
      "inputs": [],
      "name": "released",
      "outputs": [
        {
          "internalType": "uint256",
          "name": "",
          "type": "uint256"
        }
      ],
      "stateMutability": "view",
      "type": "function"
    },
    {
      "inputs": [],
      "name": "renounceOwnership",
      "outputs": [],
      "stateMutability": "nonpayable",
      "type": "function"
    },
    {
      "inputs": [],
      "name": "start",
      "outputs": [
        {
          "internalType": "uint256",
          "name": "",
          "type": "uint256"
        }
      ],
      "stateMutability": "view",
      "type": "function"
    },
    {
      "inputs": [],
      "name": "token",
      "outputs": [
        {
          "internalType": "contract IERC20",
          "name": "",
          "type": "address"
        }
      ],
      "stateMutability": "view",
      "type": "function"
    },
    {
      "inputs": [],
      "name": "totalAmount",
      "outputs": [
        {
          "internalType": "uint256",
          "name": "",
          "type": "uint256"
        }
      ],
      "stateMutability": "view",
      "type": "function"
    },
    {
      "inputs": [
        {
          "internalType": "address",
          "name": "newOwner",
          "type": "address"
        }
      ],
      "name": "transferOwnership",
      "outputs": [],
      "stateMutability": "nonpayable",
      "type": "function"
    },
    {
      "inputs": [],
      "name": "vestedAmount",
      "outputs": [
        {
          "internalType": "uint256",
          "name": "",
          "type": "uint256"
        }
      ],
      "stateMutability": "view",
      "type": "function"
    }
  ],
  "bytecode": "0x6101206040523480156200001257600080fd5b5060405162000d5438038062000d548339810160408190526200003591620003dc565b33806200005d57604051631e4fbdf760e01b8152600060048201526024015b60405180910390fd5b62000068816200014f565b506001600160a01b038516158015906200008a57506001600160a01b03841615155b620000c45760405162461bcd60e51b81526020600482015260096024820152683d32b9379030b2323960b91b604482015260640162000054565b600081118015620000d55750600083115b620001105760405162461bcd60e51b815260206004820152600a60248201526962616420706172616d7360b01b604482015260640162000054565b6001600160a01b0380861660808190529085166101005260e084905260a083905260c082905262000144903330866200019f565b505050505062000484565b600080546001600160a01b038381166001600160a01b0319831681178455604051919092169283917f8be0079c531659141344cd1fd0a4f28419497f9722a3daafe3b4186f6b6457e09190a35050565b604080516001600160a01b0385811660248301528416604482015260648082018490528251808303909101815260849091019091526020810180516001600160e01b039081166323b872dd60e01b17909152620001ff9186916200020516565b50505050565b60006200021c6001600160a01b0384168362000274565b90508051600014158015620002445750808060200190518101906200024291906200042f565b155b156200026f57604051635274afe760e01b81526001600160a01b038416600482015260240162000054565b505050565b606062000284838360006200028b565b9392505050565b606081471015620002b25760405163cd78605960e01b815230600482015260240162000054565b600080856001600160a01b03168486604051620002d0919062000453565b60006040518083038185875af1925050503d80600081146200030f576040519150601f19603f3d011682016040523d82523d6000602084013e62000314565b606091505b5090925090506200032786838362000331565b9695505050505050565b6060826200034a57620003448262000395565b62000284565b81511580156200036257506001600160a01b0384163b155b156200038d57604051639996b31560e01b81526001600160a01b038516600482015260240162000054565b508062000284565b805115620003a65780518082602001fd5b604051630a12f52160e11b815260040160405180910390fd5b80516001600160a01b0381168114620003d757600080fd5b919050565b600080600080600060a08688031215620003f557600080fd5b6200040086620003bf565b94506200041060208701620003bf565b6040870151606088015160809098015196999198509695945092505050565b6000602082840312156200044257600080fd5b815180151581146200028457600080fd5b6000825160005b818110156200047657602081860181015185830152016200045a565b506000920191825250919050565b60805160a05160c05160e051610100516108476200050d6000396000818161011f015281816103d001526103f701526000818160f80152818161027901526102ec01526000818160be0152818161022b015261029d015260008181610192015281816101fa0152818161024c01526102c10152600081816101d401526103ae01526108476000f3fe608060405234801561001057600080fd5b50600436106100b45760003560e01c80638da5cb5b116100715780638da5cb5b146101735780639613252114610184578063be9a65551461018d578063f2fde38b146101b4578063fbccedae146101c7578063fc0c546a146101cf57600080fd5b80630fb5a6b4146100b95780631a39d8ef146100f357806338af3eed1461011a57806344b1231f14610159578063715018a61461016157806386d1a69f1461016b575b600080fd5b6100e07f000000000000000000000000000000000000000000000000000000000000000081565b6040519081526020015b60405180910390f35b6100e07f000000000000000000000000000000000000000000000000000000000000000081565b6101417f000000000000000000000000000000000000000000000000000000000000000081565b6040516001600160a01b0390911681526020016100ea565b6100e06101f6565b61016961031f565b005b610169610333565b6000546001600160a01b0316610141565b6100e060015481565b6100e07f000000000000000000000000000000000000000000000000000000000000000081565b6101696101c2366004610722565b61045b565b6100e0610499565b6101417f000000000000000000000000000000000000000000000000000000000000000081565b60007f00000000000000000000000000000000000000000000000000000000000000004210156102265750600090565b6102707f00000000000000000000000000000000000000000000000000000000000000007f0000000000000000000000000000000000000000000000000000000000000000610761565b421061029b57507f000000000000000000000000000000000000000000000000000000000000000090565b7f00000000000000000000000000000000000000000000000000000000000000006102e67f000000000000000000000000000000000000000000000000000000000000000042610774565b610310907f0000000000000000000000000000000000000000000000000000000000000000610787565b61031a919061079e565b905090565b6103276104b0565b61033160006104dd565b565b600061033d610499565b9050600081116103895760405162461bcd60e51b81526020600482015260126024820152716e6f7468696e6720746f2072656c6561736560701b60448201526064015b60405180910390fd5b806001600082825461039b9190610761565b909155506103f590506001600160a01b037f0000000000000000000000000000000000000000000000000000000000000000167f00000000000000000000000000000000000000000000000000000000000000008361052d565b7f00000000000000000000000000000000000000000000000000000000000000006001600160a01b03167fb21fb52d5749b80f3182f8c6992236b5e5576681880914484d7f4c9b062e619e8260405161045091815260200190565b60405180910390a250565b6104636104b0565b6001600160a01b03811661048d57604051631e4fbdf760e01b815260006004820152602401610380565b610496816104dd565b50565b60006001546104a66101f6565b61031a9190610774565b6000546001600160a01b031633146103315760405163118cdaa760e01b8152336004820152602401610380565b600080546001600160a01b038381166001600160a01b0319831681178455604051919092169283917f8be0079c531659141344cd1fd0a4f28419497f9722a3daafe3b4186f6b6457e09190a35050565b604080516001600160a01b038416602482015260448082018490528251808303909101815260649091019091526020810180516001600160e01b031663a9059cbb60e01b17905261057f908490610584565b505050565b60006105996001600160a01b038416836105e7565b905080516000141580156105be5750808060200190518101906105bc91906107c0565b155b1561057f57604051635274afe760e01b81526001600160a01b0384166004820152602401610380565b60606105f5838360006105fe565b90505b92915050565b6060814710156106235760405163cd78605960e01b8152306004820152602401610380565b600080856001600160a01b0316848660405161063f91906107e2565b60006040518083038185875af1925050503d806000811461067c576040519150601f19603f3d011682016040523d82523d6000602084013e610681565b606091505b509150915061069186838361069d565b925050505b9392505050565b6060826106b2576106ad826106f9565b610696565b81511580156106c957506001600160a01b0384163b155b156106f257604051639996b31560e01b81526001600160a01b0385166004820152602401610380565b5080610696565b8051156107095780518082602001fd5b604051630a12f52160e11b815260040160405180910390fd5b60006020828403121561073457600080fd5b81356001600160a01b038116811461069657600080fd5b634e487b7160e01b600052601160045260246000fd5b808201808211156105f8576105f861074b565b818103818111156105f8576105f861074b565b80820281158282048414176105f8576105f861074b565b6000826107bb57634e487b7160e01b600052601260045260246000fd5b500490565b6000602082840312156107d257600080fd5b8151801515811461069657600080fd5b6000825160005b8181101561080357602081860181015185830152016107e9565b50600092019182525091905056fea264697066735822122066be991911d33fec60601221d2c417832455f8910d0db62d15128eb5cdb38ae864736f6c63430008140033",
  "linkReferences": {},
  "deployedLinkReferences": {}
}