{
  "_format": "hh-sol-artifact-1",
  "contractName": "CDPPoints",
  "sourceName": "sol/CDPPoints.sol",
  "abi": [
    {
      "inputs": [
        {
          "internalType": "address",
          "name": "_joyToken",
          "type": "address"
        }
      ],
      "stateMutability": "nonpayable",
      "type": "constructor"
    },
    {
      "inputs": [],
      "name": "AccessControlBadConfirmation",
      "type": "error"
    },
    {
      "inputs": [
        {
          "internalType": "address",
          "name": "account",
          "type": "address"
        },
        {
          "internalType": "bytes32",
          "name": "neededRole",
          "type": "bytes32"
        }
      ],
      "name": "AccessControlUnauthorizedAccount",
      "type": "error"
    },
    {
      "inputs": [
        {
          "internalType": "address",
          "name": "target",
          "type": "address"
        }
      ],
      "name": "AddressEmptyCode",
      "type": "error"
    },
    {
      "inputs": [
        {
          "internalType": "address",
          "name": "account",
          "type": "address"
        }
      ],
      "name": "AddressInsufficientBalance",
      "type": "error"
    },
    {
      "inputs": [],
      "name": "FailedInnerCall",
      "type": "error"
    },
    {
      "inputs": [],
      "name": "ReentrancyGuardReentrantCall",
      "type": "error"
    },
    {
      "inputs": [
        {
          "internalType": "address",
          "name": "token",
          "type": "address"
        }
      ],
      "name": "SafeERC20FailedOperation",
      "type": "error"
    },
    {
      "anonymous": false,
      "inputs": [
        {
          "indexed": false,
          "internalType": "uint256",
          "name": "oldRate",
          "type": "uint256"
        },
        {
          "indexed": false,
          "internalType": "uint256",
          "name": "newRate",
          "type": "uint256"
        }
      ],
      "name": "ConversionRateUpdated",
      "type": "event"
    },
    {
      "anonymous": false,
      "inputs": [
        {
          "indexed": false,
          "internalType": "bool",
          "name": "paused",
          "type": "bool"
        }
      ],
      "name": "ConversionsPaused",
      "type": "event"
    },
    {
      "anonymous": false,
      "inputs": [
        {
          "indexed": true,
          "internalType": "address",
          "name": "user",
          "type": "address"
        },
        {
          "indexed": false,
          "internalType": "uint256",
          "name": "amount",
          "type": "uint256"
        },
        {
          "indexed": false,
          "internalType": "string",
          "name": "reason",
          "type": "string"
        }
      ],
      "name": "PointsAwarded",
      "type": "event"
    },
    {
      "anonymous": false,
      "inputs": [
        {
          "indexed": true,
          "internalType": "address",
          "name": "user",
          "type": "address"
        },
        {
          "indexed": false,
          "internalType": "uint256",
          "name": "cdpBurned",
          "type": "uint256"
        },
        {
          "indexed": false,
          "internalType": "uint256",
          "name": "joyReceived",
          "type": "uint256"
        }
      ],
      "name": "PointsConverted",
      "type": "event"
    },
    {
      "anonymous": false,
      "inputs": [
        {
          "indexed": true,
          "internalType": "address",
          "name": "user",
          "type": "address"
        },
        {
          "indexed": false,
          "internalType": "uint256",
          "name": "amount",
          "type": "uint256"
        },
        {
          "indexed": false,
          "internalType": "string",
          "name": "reason",
          "type": "string"
        }
      ],
      "name": "PointsDeducted",
      "type": "event"
    },
    {
      "anonymous": false,
      "inputs": [
        {
          "indexed": true,
          "internalType": "bytes32",
          "name": "role",
          "type": "bytes32"
        },
        {
          "indexed": true,
          "internalType": "bytes32",
          "name": "previousAdminRole",
          "type": "bytes32"
        },
        {
          "indexed": true,
          "internalType": "bytes32",
          "name": "newAdminRole",
          "type": "bytes32"
        }
      ],
      "name": "RoleAdminChanged",
      "type": "event"
    },
    {
      "anonymous": false,
      "inputs": [
        {
          "indexed": true,
          "internalType": "bytes32",
          "name": "role",
          "type": "bytes32"
        },
        {
          "indexed": true,
          "internalType": "address",
          "name": "account",
          "type": "address"
        },
        {
          "indexed": true,
          "internalType": "address",
          "name": "sender",
          "type": "address"
        }
      ],
      "name": "RoleGranted",
      "type": "event"
    },
    {
      "anonymous": false,
      "inputs": [
        {
          "indexed": true,
          "internalType": "bytes32",
          "name": "role",
          "type": "bytes32"
        },
        {
          "indexed": true,
          "internalType": "address",
          "name": "account",
          "type": "address"
        },
        {
          "indexed": true,
          "internalType": "address",
          "name": "sender",
          "type": "address"
        }
      ],
      "name": "RoleRevoked",
      "type": "event"
    },
    {
      "inputs": [],
      "name": "DEFAULT_ADMIN_ROLE",
      "outputs": [
        {
          "internalType": "bytes32",
          "name": "",
          "type": "bytes32"
        }
      ],
      "stateMutability": "view",
      "type": "function"
    },
    {
      "inputs": [],
      "name": "OPERATOR_ROLE",
      "outputs": [
        {
          "internalType": "bytes32",
          "name": "",
          "type": "bytes32"
        }
      ],
      "stateMutability": "view",
      "type": "function"
    },
    {
      "inputs": [
        {
          "internalType": "address",
          "name": "user",
          "type": "address"
        },
        {
          "internalType": "uint256",
          "name": "amount",
          "type": "uint256"
        },
        {
          "internalType": "string",
          "name": "reason",
          "type": "string"
        }
      ],
      "name": "awardPoints",
      "outputs": [],
      "stateMutability": "nonpayable",
      "type": "function"
    },
    {
      "inputs": [
        {
          "internalType": "address",
          "name": "",
          "type": "address"
        }
      ],
      "name": "balanceOf",
      "outputs": [
        {
          "internalType": "uint256",
          "name": "",
          "type": "uint256"
        }
      ],
      "stateMutability": "view",
      "type": "function"
    },
    {
      "inputs": [
        {
          "internalType": "address[]",
          "name": "users",
          "type": "address[]"
        },
        {
          "internalType": "uint256[]",
          "name": "amounts",
          "type": "uint256[]"
        },
        {
          "internalType": "string",
          "name": "reason",
          "type": "string"
        }
      ],
      "name": "batchAwardPoints",
      "outputs": [],
      "stateMutability": "nonpayable",
      "type": "function"
    },
    {
      "inputs": [],
      "name": "cdpPerJoy",
      "outputs": [
        {
          "internalType": "uint256",
          "name": "",
          "type": "uint256"
        }
      ],
      "stateMutability": "view",
      "type": "function"
    },
    {
      "inputs": [],
      "name": "conversionsPaused",
      "outputs": [
        {
          "internalType": "bool",
          "name": "",
          "type": "bool"
        }
      ],
      "stateMutability": "view",
      "type": "function"
    },
    {
      "inputs": [
        {
          "internalType": "uint256",
          "name": "cdpAmount",
          "type": "uint256"
        }
      ],
      "name": "convertToJOY",
      "outputs": [],
      "stateMutability": "nonpayable",
      "type": "function"
    },
    {
      "inputs": [
        {
          "internalType": "address",
          "name": "user",
          "type": "address"
        },
        {
          "internalType": "uint256",
          "name": "amount",
          "type": "uint256"
        },
        {
          "internalType": "string",
          "name": "reason",
          "type": "string"
        }
      ],
      "name": "deductPoints",
      "outputs": [],
      "stateMutability": "nonpayable",
      "type": "function"
    },
    {
      "inputs": [
        {
          "internalType": "bytes32",
          "name": "role",
          "type": "bytes32"
        }
      ],
      "name": "getRoleAdmin",
      "outputs": [
        {
          "internalType": "bytes32",
          "name": "",
          "type": "bytes32"
        }
      ],
      "stateMutability": "view",
      "type": "function"
    },
    {
      "inputs": [
        {
          "internalType": "bytes32",
          "name": "role",
          "type": "bytes32"
        },
        {
          "internalType": "address",
          "name": "account",
          "type": "address"
        }
      ],
      "name": "grantRole",
      "outputs": [],
      "stateMutability": "nonpayable",
      "type": "function"
    },
    {
      "inputs": [
        {
          "internalType": "bytes32",
          "name": "role",
          "type": "bytes32"
        },
        {
          "internalType": "address",
          "name": "account",
          "type": "address"
        }
      ],
      "name": "hasRole",
      "outputs": [
        {
          "internalType": "bool",
          "name": "",
          "type": "bool"
        }
      ],
      "stateMutability": "view",
      "type": "function"
    },
    {
      "inputs": [],
      "name": "joyToken",
      "outputs": [
        {
          "internalType": "address",
          "name": "",
          "type": "address"
        }
      ],
      "stateMutability": "view",
      "type": "function"
    },
    {
      "inputs": [
        {
          "internalType": "bytes32",
          "name": "role",
          "type": "bytes32"
        },
        {
          "internalType": "address",
          "name": "callerConfirmation",
          "type": "address"
        }
      ],
      "name": "renounceRole",
      "outputs": [],
      "stateMutability": "nonpayable",
      "type": "function"
    },
    {
      "inputs": [
        {
          "internalType": "bytes32",
          "name": "role",
          "type": "bytes32"
        },
        {
          "internalType": "address",
          "name": "account",
          "type": "address"
        }
      ],
      "name": "revokeRole",
      "outputs": [],
      "stateMutability": "nonpayable",
      "type": "function"
    },
    {
      "inputs": [
        {
          "internalType": "uint256",
          "name": "newRate",
          "type": "uint256"
        }
      ],
      "name": "setConversionRate",
      "outputs": [],
      "stateMutability": "nonpayable",
      "type": "function"
    },
    {
      "inputs": [
        {
          "internalType": "bool",
          "name": "paused",
          "type": "bool"
        }
      ],
      "name": "setConversionsPaused",
      "outputs": [],
      "stateMutability": "nonpayable",
      "type": "function"
    },
    {
      "inputs": [
        {
          "internalType": "address",
          "name": "newJoy",
          "type": "address"
        }
      ],
      "name": "setJoyToken",
      "outputs": [],
      "stateMutability": "nonpayable",
      "type": "function"
    },
    {
      "inputs": [
        {
          "internalType": "bytes4",
          "name": "interfaceId",
          "type": "bytes4"
        }
      ],
      "name": "supportsInterface",
      "outputs": [
        {
          "internalType": "bool",
          "name": "",
          "type": "bool"
        }
      ],
      "stateMutability": "view",
      "type": "function"
    },
    {
      "inputs": [],
      "name": "totalBurned",
      "outputs": [
        {
          "internalType": "uint256",
          "name": "",
          "type": "uint256"
        }
      ],
      "stateMutability": "view",
      "type": "function"
    },
    {
      "inputs": [],
      "name": "totalMinted",
      "outputs": [
        {
          "internalType": "uint256",
          "name": "",
          "type": "uint256"
        }
      ],
      "stateMutability": "view",
      "type": "function"
    },
    {
      "inputs": [],
      "name": "totalSupply",
      "outputs": [
        {
          "internalType": "uint256",
          "name": "",
          "type": "uint256"
        }
      ],
      "stateMutability": "view",
      "type": "function"
    },
    {
      "inputs": [
        {
          "internalType": "uint256",
          "name": "amount",
          "type": "uint256"
        }
      ],
      "name": "withdrawJOY",
      "outputs": [],
      "stateMutability": "nonpayable",
      "type": "function"
    }
  ],
  "bytecode": "0x608060405260646006553480156200001657600080fd5b5060405162001611380380620016118339810160408190526200003991620001a4565b600180556001600160a01b038116620000985760405162461bcd60e51b815260206004820152601360248201527f496e76616c6964204a4f59206164647265737300000000000000000000000000604482015260640160405180910390fd5b600780546001600160a01b0319166001600160a01b038316179055620000c0600033620000f5565b50620000ed7f97667070c54ef182b0f5858b034beac1b6f3089aa2d3188bb1e8929f4fa9b92933620000f5565b5050620001d6565b6000828152602081815260408083206001600160a01b038516845290915281205460ff166200019a576000838152602081815260408083206001600160a01b03861684529091529020805460ff19166001179055620001513390565b6001600160a01b0316826001600160a01b0316847f2f8788117e7eff1d82e926ec794901d17c78024a50270940304540a733656f0d60405160405180910390a45060016200019e565b5060005b92915050565b600060208284031215620001b757600080fd5b81516001600160a01b0381168114620001cf57600080fd5b9392505050565b61142b80620001e66000396000f3fe608060405234801561001057600080fd5b506004361061014d5760003560e01c80639a109833116100c3578063a75b8a951161007c578063a75b8a95146102d1578063b27de99e146102da578063d2e80494146102ed578063d547741f14610300578063d89135cd14610313578063f5b541a61461031c57600080fd5b80639a1098331461025b5780639b465f6f1461026f5780639bd8791d14610282578063a217fddf14610295578063a2309ff81461029d578063a64968ac146102a657600080fd5b80632f2ff15d116101155780632f2ff15d146101dc57806336568abe146101ef57806348b54b6a1461020257806370a08231146102155780637e684b0e1461023557806391d148541461024857600080fd5b806301ffc9a71461015257806318160ddd1461017a578063248a9ca314610191578063290ab9ab146101b45780632ca56a3d146101c9575b600080fd5b610165610160366004611043565b610331565b60405190151581526020015b60405180910390f35b61018360055481565b604051908152602001610171565b61018361019f36600461106d565b60009081526020819052604090206001015490565b6101c76101c23660046110eb565b610368565b005b6101c76101d736600461106d565b6104bc565b6101c76101ea366004611145565b6104e2565b6101c76101fd366004611145565b61050d565b6101c761021036600461106d565b610545565b610183610223366004611171565b60026020526000908152604090205481565b6101c761024336600461119a565b6107d2565b610165610256366004611145565b610836565b60075461016590600160a01b900460ff1681565b6101c761027d3660046110eb565b61085f565b6101c7610290366004611171565b610974565b610183600081565b61018360035481565b6007546102b9906001600160a01b031681565b6040516001600160a01b039091168152602001610171565b61018360065481565b6101c76102e83660046111fc565b6109ea565b6101c76102fb36600461106d565b610c34565b6101c761030e366004611145565b610cc8565b61018360045481565b6101836000805160206113d683398151915281565b60006001600160e01b03198216637965db0b60e01b148061036257506301ffc9a760e01b6001600160e01b03198316145b92915050565b6000805160206113d683398151915261038081610ced565b6001600160a01b0385166103ca5760405162461bcd60e51b815260206004820152600c60248201526b24b73b30b634b2103ab9b2b960a11b60448201526064015b60405180910390fd5b6000841161040f5760405162461bcd60e51b81526020600482015260126024820152710416d6f756e74206d757374206265203e20360741b60448201526064016103c1565b6001600160a01b038516600090815260026020526040812080548692906104379084906112ac565b92505081905550836003600082825461045091906112ac565b92505081905550836005600082825461046991906112ac565b92505081905550846001600160a01b03167f4c3089477cda1ac100291a040b3ac97ff5f55b6d8b2acfb56a59b9419d95ce048585856040516104ad939291906112bf565b60405180910390a25050505050565b60006104c781610ced565b6007546104de906001600160a01b03163384610cf7565b5050565b6000828152602081905260409020600101546104fd81610ced565b6105078383610d49565b50505050565b6001600160a01b03811633146105365760405163334bd91960e11b815260040160405180910390fd5b6105408282610ddb565b505050565b61054d610e46565b600754600160a01b900460ff161561059c5760405162461bcd60e51b815260206004820152601260248201527110dbdb9d995c9cda5bdb9cc81c185d5cd95960721b60448201526064016103c1565b6006548110156105ee5760405162461bcd60e51b815260206004820152601860248201527f42656c6f77206d696e696d756d20636f6e76657273696f6e000000000000000060448201526064016103c1565b336000908152600260205260409020548111156106405760405162461bcd60e51b815260206004820152601060248201526f0496e73756666696369656e74204344560841b60448201526064016103c1565b6006546000906106558364e8d4a510006112f5565b61065f919061130c565b6007546040516370a0823160e01b81523060048201529192506001600160a01b031690829082906370a0823190602401602060405180830381865afa1580156106ac573d6000803e3d6000fd5b505050506040513d601f19601f820116820180604052508101906106d0919061132e565b101561071e5760405162461bcd60e51b815260206004820152601860248201527f496e73756666696369656e74204a4f5920696e20706f6f6c000000000000000060448201526064016103c1565b336000908152600260205260408120805485929061073d908490611347565b92505081905550826004600082825461075691906112ac565b92505081905550826005600082825461076f9190611347565b9091555061078990506001600160a01b0382163384610cf7565b604080518481526020810184905233917f6458c94e9777bbc30aee6f0b0a4509d5a7789f8cdfdedb960debd3573997540d910160405180910390a250506107cf60018055565b50565b60006107dd81610ced565b60078054831515600160a01b0260ff60a01b199091161790556040517f109cad317278c9b10c06b29205d68b80575d18b98c3f0621e7e75827fa055f709061082a90841515815260200190565b60405180910390a15050565b6000918252602082815260408084206001600160a01b0393909316845291905290205460ff1690565b6000805160206113d683398151915261087781610ced565b6001600160a01b0385166000908152600260205260409020548411156108d65760405162461bcd60e51b8152602060048201526014602482015273496e73756666696369656e742062616c616e636560601b60448201526064016103c1565b6001600160a01b038516600090815260026020526040812080548692906108fe908490611347565b92505081905550836004600082825461091791906112ac565b9250508190555083600560008282546109309190611347565b92505081905550846001600160a01b03167ff9d84dc8dbc1ec63030d63fe51eb9e84f59905783078b2f3d84f3fcee1ae778f8585856040516104ad939291906112bf565b600061097f81610ced565b6001600160a01b0382166109c75760405162461bcd60e51b815260206004820152600f60248201526e496e76616c6964206164647265737360881b60448201526064016103c1565b50600780546001600160a01b0319166001600160a01b0392909216919091179055565b6000805160206113d6833981519152610a0281610ced565b858414610a435760405162461bcd60e51b815260206004820152600f60248201526e098cadccee8d040dad2e6dac2e8c6d608b1b60448201526064016103c1565b60005b86811015610c2a576000888883818110610a6257610a6261135a565b9050602002016020810190610a779190611171565b6001600160a01b031603610abc5760405162461bcd60e51b815260206004820152600c60248201526b24b73b30b634b2103ab9b2b960a11b60448201526064016103c1565b858582818110610ace57610ace61135a565b90506020020135600260008a8a85818110610aeb57610aeb61135a565b9050602002016020810190610b009190611171565b6001600160a01b03166001600160a01b031681526020019081526020016000206000828254610b2f91906112ac565b909155508690508582818110610b4757610b4761135a565b9050602002013560036000828254610b5f91906112ac565b909155508690508582818110610b7757610b7761135a565b9050602002013560056000828254610b8f91906112ac565b909155508890508782818110610ba757610ba761135a565b9050602002016020810190610bbc9190611171565b6001600160a01b03167f4c3089477cda1ac100291a040b3ac97ff5f55b6d8b2acfb56a59b9419d95ce04878784818110610bf857610bf861135a565b905060200201358686604051610c10939291906112bf565b60405180910390a280610c2281611370565b915050610a46565b5050505050505050565b6000610c3f81610ced565b60008211610c825760405162461bcd60e51b815260206004820152601060248201526f052617465206d757374206265203e20360841b60448201526064016103c1565b600680549083905560408051828152602081018590527fa951dd7112ba7b7fbc01435d34365ae90f77c21ae3715041c3d0ccb9f6ed0daa910160405180910390a1505050565b600082815260208190526040902060010154610ce381610ced565b6105078383610ddb565b6107cf8133610e70565b604080516001600160a01b038416602482015260448082018490528251808303909101815260649091019091526020810180516001600160e01b031663a9059cbb60e01b179052610540908490610ea9565b6000610d558383610836565b610dd3576000838152602081815260408083206001600160a01b03861684529091529020805460ff19166001179055610d8b3390565b6001600160a01b0316826001600160a01b0316847f2f8788117e7eff1d82e926ec794901d17c78024a50270940304540a733656f0d60405160405180910390a4506001610362565b506000610362565b6000610de78383610836565b15610dd3576000838152602081815260408083206001600160a01b0386168085529252808320805460ff1916905551339286917ff6391f5c32d9c69d2a47ea670b442974b53935d1edc7fd64eb21e047a839171b9190a4506001610362565b600260015403610e6957604051633ee5aeb560e01b815260040160405180910390fd5b6002600155565b610e7a8282610836565b6104de5760405163e2517d3f60e01b81526001600160a01b0382166004820152602481018390526044016103c1565b6000610ebe6001600160a01b03841683610f0c565b90508051600014158015610ee3575080806020019051810190610ee19190611389565b155b1561054057604051635274afe760e01b81526001600160a01b03841660048201526024016103c1565b6060610f1a83836000610f21565b9392505050565b606081471015610f465760405163cd78605960e01b81523060048201526024016103c1565b600080856001600160a01b03168486604051610f6291906113a6565b60006040518083038185875af1925050503d8060008114610f9f576040519150601f19603f3d011682016040523d82523d6000602084013e610fa4565b606091505b5091509150610fb4868383610fbe565b9695505050505050565b606082610fd357610fce8261101a565b610f1a565b8151158015610fea57506001600160a01b0384163b155b1561101357604051639996b31560e01b81526001600160a01b03851660048201526024016103c1565b5080610f1a565b80511561102a5780518082602001fd5b604051630a12f52160e11b815260040160405180910390fd5b60006020828403121561105557600080fd5b81356001600160e01b031981168114610f1a57600080fd5b60006020828403121561107f57600080fd5b5035919050565b80356001600160a01b038116811461109d57600080fd5b919050565b60008083601f8401126110b457600080fd5b50813567ffffffffffffffff8111156110cc57600080fd5b6020830191508360208285010111156110e457600080fd5b9250929050565b6000806000806060858703121561110157600080fd5b61110a85611086565b935060208501359250604085013567ffffffffffffffff81111561112d57600080fd5b611139878288016110a2565b95989497509550505050565b6000806040838503121561115857600080fd5b8235915061116860208401611086565b90509250929050565b60006020828403121561118357600080fd5b610f1a82611086565b80151581146107cf57600080fd5b6000602082840312156111ac57600080fd5b8135610f1a8161118c565b60008083601f8401126111c957600080fd5b50813567ffffffffffffffff8111156111e157600080fd5b6020830191508360208260051b85010111156110e457600080fd5b6000806000806000806060878903121561121557600080fd5b863567ffffffffffffffff8082111561122d57600080fd5b6112398a838b016111b7565b9098509650602089013591508082111561125257600080fd5b61125e8a838b016111b7565b9096509450604089013591508082111561127757600080fd5b5061128489828a016110a2565b979a9699509497509295939492505050565b634e487b7160e01b600052601160045260246000fd5b8082018082111561036257610362611296565b83815260406020820152816040820152818360608301376000818301606090810191909152601f909201601f1916010192915050565b808202811582820484141761036257610362611296565b60008261132957634e487b7160e01b600052601260045260246000fd5b500490565b60006020828403121561134057600080fd5b5051919050565b8181038181111561036257610362611296565b634e487b7160e01b600052603260045260246000fd5b60006001820161138257611382611296565b5060010190565b60006020828403121561139b57600080fd5b8151610f1a8161118c565b6000825160005b818110156113c757602081860181015185830152016113ad565b50600092019182525091905056fe97667070c54ef182b0f5858b034beac1b6f3089aa2d3188bb1e8929f4fa9b929a26469706673582212209cd50ed31056d11152e627ccdce4e1f460e723a5c1fbed9cdbdbc7667df22be564736f6c63430008140033",
  "linkReferences": {},
  "deployedLinkReferences": {}
}